{
  "_format": "hh-sol-artifact-1",
  "contractName": "YapBayEscrow",
  "sourceName": "contracts/YapBayEscrow.sol",
  "abi": [
    {
      "anonymous": false,
      "inputs": [
        {
          "indexed": false,
          "internalType": "address",
          "name": "previousAdmin",
          "type": "address"
        },
        {
          "indexed": false,
          "internalType": "address",
          "name": "newAdmin",
          "type": "address"
        }
      ],
      "name": "AdminChanged",
      "type": "event"
    },
    {
      "anonymous": false,
      "inputs": [
        {
          "indexed": true,
          "internalType": "address",
          "name": "beacon",
          "type": "address"
        }
      ],
      "name": "BeaconUpgraded",
      "type": "event"
    },
    {
      "anonymous": false,
      "inputs": [
        {
          "indexed": true,
          "internalType": "uint256",
          "name": "escrowId",
          "type": "uint256"
        },
        {
          "indexed": true,
          "internalType": "uint256",
          "name": "tradeId",
          "type": "uint256"
        },
        {
          "indexed": false,
          "internalType": "address",
          "name": "initiator",
          "type": "address"
        },
        {
          "indexed": false,
          "internalType": "uint256",
          "name": "bondAmount",
          "type": "uint256"
        },
        {
          "indexed": false,
          "internalType": "uint256",
          "name": "timestamp",
          "type": "uint256"
        }
      ],
      "name": "DisputeOpened",
      "type": "event"
    },
    {
      "anonymous": false,
      "inputs": [
        {
          "indexed": true,
          "internalType": "uint256",
          "name": "escrowId",
          "type": "uint256"
        },
        {
          "indexed": false,
          "internalType": "bool",
          "name": "decision",
          "type": "bool"
        },
        {
          "indexed": false,
          "internalType": "bytes32",
          "name": "explanationHash",
          "type": "bytes32"
        },
        {
          "indexed": false,
          "internalType": "string",
          "name": "bondAllocation",
          "type": "string"
        }
      ],
      "name": "DisputeResolved",
      "type": "event"
    },
    {
      "anonymous": false,
      "inputs": [
        {
          "indexed": true,
          "internalType": "uint256",
          "name": "escrowId",
          "type": "uint256"
        },
        {
          "indexed": false,
          "internalType": "address",
          "name": "responder",
          "type": "address"
        },
        {
          "indexed": false,
          "internalType": "uint256",
          "name": "bondAmount",
          "type": "uint256"
        },
        {
          "indexed": false,
          "internalType": "bytes32",
          "name": "evidenceHash",
          "type": "bytes32"
        }
      ],
      "name": "DisputeResponse",
      "type": "event"
    },
    {
      "anonymous": false,
      "inputs": [
        {
          "indexed": true,
          "internalType": "uint256",
          "name": "escrowId",
          "type": "uint256"
        },
        {
          "indexed": false,
          "internalType": "uint256",
          "name": "newBalance",
          "type": "uint256"
        },
        {
          "indexed": false,
          "internalType": "string",
          "name": "reason",
          "type": "string"
        }
      ],
      "name": "EscrowBalanceChanged",
      "type": "event"
    },
    {
      "anonymous": false,
      "inputs": [
        {
          "indexed": true,
          "internalType": "uint256",
          "name": "escrowId",
          "type": "uint256"
        },
        {
          "indexed": true,
          "internalType": "uint256",
          "name": "tradeId",
          "type": "uint256"
        },
        {
          "indexed": false,
          "internalType": "address",
          "name": "seller",
          "type": "address"
        },
        {
          "indexed": false,
          "internalType": "uint256",
          "name": "amount",
          "type": "uint256"
        },
        {
          "indexed": false,
          "internalType": "uint256",
          "name": "counter",
          "type": "uint256"
        },
        {
          "indexed": false,
          "internalType": "uint256",
          "name": "timestamp",
          "type": "uint256"
        }
      ],
      "name": "EscrowCancelled",
      "type": "event"
    },
    {
      "anonymous": false,
      "inputs": [
        {
          "indexed": true,
          "internalType": "uint256",
          "name": "escrowId",
          "type": "uint256"
        },
        {
          "indexed": true,
          "internalType": "uint256",
          "name": "tradeId",
          "type": "uint256"
        },
        {
          "indexed": false,
          "internalType": "address",
          "name": "seller",
          "type": "address"
        },
        {
          "indexed": false,
          "internalType": "address",
          "name": "buyer",
          "type": "address"
        },
        {
          "indexed": false,
          "internalType": "address",
          "name": "arbitrator",
          "type": "address"
        },
        {
          "indexed": false,
          "internalType": "uint256",
          "name": "amount",
          "type": "uint256"
        },
        {
          "indexed": false,
          "internalType": "uint256",
          "name": "deposit_deadline",
          "type": "uint256"
        },
        {
          "indexed": false,
          "internalType": "uint256",
          "name": "fiat_deadline",
          "type": "uint256"
        },
        {
          "indexed": false,
          "internalType": "bool",
          "name": "sequential",
          "type": "bool"
        },
        {
          "indexed": false,
          "internalType": "address",
          "name": "sequentialEscrowAddress",
          "type": "address"
        },
        {
          "indexed": false,
          "internalType": "uint256",
          "name": "timestamp",
          "type": "uint256"
        }
      ],
      "name": "EscrowCreated",
      "type": "event"
    },
    {
      "anonymous": false,
      "inputs": [
        {
          "indexed": true,
          "internalType": "uint256",
          "name": "escrowId",
          "type": "uint256"
        },
        {
          "indexed": true,
          "internalType": "uint256",
          "name": "tradeId",
          "type": "uint256"
        },
        {
          "indexed": false,
          "internalType": "address",
          "name": "buyer",
          "type": "address"
        },
        {
          "indexed": false,
          "internalType": "uint256",
          "name": "amount",
          "type": "uint256"
        },
        {
          "indexed": false,
          "internalType": "uint256",
          "name": "counter",
          "type": "uint256"
        },
        {
          "indexed": false,
          "internalType": "uint256",
          "name": "timestamp",
          "type": "uint256"
        },
        {
          "indexed": false,
          "internalType": "string",
          "name": "destination",
          "type": "string"
        }
      ],
      "name": "EscrowReleased",
      "type": "event"
    },
    {
      "anonymous": false,
      "inputs": [
        {
          "indexed": true,
          "internalType": "uint256",
          "name": "escrowId",
          "type": "uint256"
        },
        {
          "indexed": true,
          "internalType": "uint256",
          "name": "tradeId",
          "type": "uint256"
        },
        {
          "indexed": false,
          "internalType": "uint256",
          "name": "timestamp",
          "type": "uint256"
        }
      ],
      "name": "FiatMarkedPaid",
      "type": "event"
    },
    {
      "anonymous": false,
      "inputs": [
        {
          "indexed": true,
          "internalType": "uint256",
          "name": "escrowId",
          "type": "uint256"
        },
        {
          "indexed": true,
          "internalType": "uint256",
          "name": "tradeId",
          "type": "uint256"
        },
        {
          "indexed": false,
          "internalType": "uint256",
          "name": "amount",
          "type": "uint256"
        },
        {
          "indexed": false,
          "internalType": "uint256",
          "name": "counter",
          "type": "uint256"
        },
        {
          "indexed": false,
          "internalType": "uint256",
          "name": "timestamp",
          "type": "uint256"
        }
      ],
      "name": "FundsDeposited",
      "type": "event"
    },
    {
      "anonymous": false,
      "inputs": [
        {
          "indexed": false,
          "internalType": "uint8",
          "name": "version",
          "type": "uint8"
        }
      ],
      "name": "Initialized",
      "type": "event"
    },
    {
      "anonymous": false,
      "inputs": [
        {
          "indexed": true,
          "internalType": "address",
          "name": "previousOwner",
          "type": "address"
        },
        {
          "indexed": true,
          "internalType": "address",
          "name": "newOwner",
          "type": "address"
        }
      ],
      "name": "OwnershipTransferred",
      "type": "event"
    },
    {
      "anonymous": false,
      "inputs": [
        {
          "indexed": false,
          "internalType": "address",
          "name": "account",
          "type": "address"
        }
      ],
      "name": "Paused",
      "type": "event"
    },
    {
      "anonymous": false,
      "inputs": [
        {
          "indexed": true,
          "internalType": "uint256",
          "name": "escrowId",
          "type": "uint256"
        },
        {
          "indexed": false,
          "internalType": "address",
          "name": "oldAddress",
          "type": "address"
        },
        {
          "indexed": false,
          "internalType": "address",
          "name": "newAddress",
          "type": "address"
        },
        {
          "indexed": false,
          "internalType": "uint256",
          "name": "timestamp",
          "type": "uint256"
        }
      ],
      "name": "SequentialAddressUpdated",
      "type": "event"
    },
    {
      "anonymous": false,
      "inputs": [
        {
          "indexed": false,
          "internalType": "address",
          "name": "account",
          "type": "address"
        }
      ],
      "name": "Unpaused",
      "type": "event"
    },
    {
      "anonymous": false,
      "inputs": [
        {
          "indexed": true,
          "internalType": "address",
          "name": "implementation",
          "type": "address"
        }
      ],
      "name": "Upgraded",
      "type": "event"
    },
    {
      "inputs": [],
      "name": "ARBITRATION_DURATION",
      "outputs": [
        {
          "internalType": "uint256",
          "name": "",
          "type": "uint256"
        }
      ],
      "stateMutability": "view",
      "type": "function"
    },
    {
      "inputs": [],
      "name": "DEPOSIT_DURATION",
      "outputs": [
        {
          "internalType": "uint256",
          "name": "",
          "type": "uint256"
        }
      ],
      "stateMutability": "view",
      "type": "function"
    },
    {
      "inputs": [],
      "name": "DISPUTE_RESPONSE_DURATION",
      "outputs": [
        {
          "internalType": "uint256",
          "name": "",
          "type": "uint256"
        }
      ],
      "stateMutability": "view",
      "type": "function"
    },
    {
      "inputs": [],
      "name": "FIAT_DURATION",
      "outputs": [
        {
          "internalType": "uint256",
          "name": "",
          "type": "uint256"
        }
      ],
      "stateMutability": "view",
      "type": "function"
    },
    {
      "inputs": [],
      "name": "MAX_AMOUNT",
      "outputs": [
        {
          "internalType": "uint256",
          "name": "",
          "type": "uint256"
        }
      ],
      "stateMutability": "view",
      "type": "function"
    },
    {
      "inputs": [
        {
          "internalType": "uint256",
          "name": "_escrowId",
          "type": "uint256"
        }
      ],
      "name": "autoCancel",
      "outputs": [],
      "stateMutability": "nonpayable",
      "type": "function"
    },
    {
      "inputs": [
        {
          "internalType": "uint256",
          "name": "_escrowId",
          "type": "uint256"
        }
      ],
      "name": "cancelEscrow",
      "outputs": [],
      "stateMutability": "nonpayable",
      "type": "function"
    },
    {
      "inputs": [
        {
          "internalType": "uint256",
          "name": "_tradeId",
          "type": "uint256"
        },
        {
          "internalType": "address",
          "name": "_buyer",
          "type": "address"
        },
        {
          "internalType": "uint256",
          "name": "_amount",
          "type": "uint256"
        },
        {
          "internalType": "bool",
          "name": "_sequential",
          "type": "bool"
        },
        {
          "internalType": "address",
          "name": "_sequentialEscrowAddress",
          "type": "address"
        }
      ],
      "name": "createEscrow",
      "outputs": [
        {
          "internalType": "uint256",
          "name": "",
          "type": "uint256"
        }
      ],
      "stateMutability": "nonpayable",
      "type": "function"
    },
    {
      "inputs": [
        {
          "internalType": "uint256",
          "name": "_escrowId",
          "type": "uint256"
        }
      ],
      "name": "defaultJudgment",
      "outputs": [],
      "stateMutability": "nonpayable",
      "type": "function"
    },
    {
      "inputs": [
        {
          "internalType": "uint256",
          "name": "",
          "type": "uint256"
        }
      ],
      "name": "escrowBalances",
      "outputs": [
        {
          "internalType": "uint256",
          "name": "",
          "type": "uint256"
        }
      ],
      "stateMutability": "view",
      "type": "function"
    },
    {
      "inputs": [
        {
          "internalType": "uint256",
          "name": "",
          "type": "uint256"
        }
      ],
      "name": "escrows",
      "outputs": [
        {
          "internalType": "uint256",
          "name": "escrow_id",
          "type": "uint256"
        },
        {
          "internalType": "uint256",
          "name": "trade_id",
          "type": "uint256"
        },
        {
          "internalType": "address",
          "name": "seller",
          "type": "address"
        },
        {
          "internalType": "address",
          "name": "buyer",
          "type": "address"
        },
        {
          "internalType": "address",
          "name": "arbitrator",
          "type": "address"
        },
        {
          "internalType": "uint256",
          "name": "amount",
          "type": "uint256"
        },
        {
          "internalType": "uint256",
          "name": "deposit_deadline",
          "type": "uint256"
        },
        {
          "internalType": "uint256",
          "name": "fiat_deadline",
          "type": "uint256"
        },
        {
          "internalType": "enum YapBayEscrow.EscrowState",
          "name": "state",
          "type": "uint8"
        },
        {
          "internalType": "bool",
          "name": "sequential",
          "type": "bool"
        },
        {
          "internalType": "address",
          "name": "sequential_escrow_address",
          "type": "address"
        },
        {
          "internalType": "bool",
          "name": "fiat_paid",
          "type": "bool"
        },
        {
          "internalType": "uint256",
          "name": "counter",
          "type": "uint256"
        },
        {
          "internalType": "address",
          "name": "dispute_initiator",
          "type": "address"
        },
        {
          "internalType": "uint256",
          "name": "dispute_bond_buyer",
          "type": "uint256"
        },
        {
          "internalType": "uint256",
          "name": "dispute_bond_seller",
          "type": "uint256"
        },
        {
          "internalType": "uint256",
          "name": "dispute_initiated_time",
          "type": "uint256"
        },
        {
          "internalType": "bytes32",
          "name": "dispute_evidence_hash_buyer",
          "type": "bytes32"
        },
        {
          "internalType": "bytes32",
          "name": "dispute_evidence_hash_seller",
          "type": "bytes32"
        },
        {
          "internalType": "bytes32",
          "name": "dispute_resolution_hash",
          "type": "bytes32"
        }
      ],
      "stateMutability": "view",
      "type": "function"
    },
    {
      "inputs": [],
      "name": "fixedArbitrator",
      "outputs": [
        {
          "internalType": "address",
          "name": "",
          "type": "address"
        }
      ],
      "stateMutability": "view",
      "type": "function"
    },
    {
      "inputs": [
        {
          "internalType": "uint256",
          "name": "_escrowId",
          "type": "uint256"
        }
      ],
      "name": "fundEscrow",
      "outputs": [],
      "stateMutability": "nonpayable",
      "type": "function"
    },
    {
      "inputs": [
        {
          "internalType": "uint256",
          "name": "_escrowId",
          "type": "uint256"
        }
      ],
      "name": "getCalculatedEscrowBalance",
      "outputs": [
        {
          "internalType": "uint256",
          "name": "",
          "type": "uint256"
        }
      ],
      "stateMutability": "view",
      "type": "function"
    },
    {
      "inputs": [
        {
          "internalType": "uint256",
          "name": "_escrowId",
          "type": "uint256"
        }
      ],
      "name": "getSequentialEscrowInfo",
      "outputs": [
        {
          "internalType": "bool",
          "name": "isSequential",
          "type": "bool"
        },
        {
          "internalType": "address",
          "name": "sequentialAddress",
          "type": "address"
        },
        {
          "internalType": "uint256",
          "name": "sequentialBalance",
          "type": "uint256"
        },
        {
          "internalType": "bool",
          "name": "wasReleased",
          "type": "bool"
        }
      ],
      "stateMutability": "view",
      "type": "function"
    },
    {
      "inputs": [
        {
          "internalType": "uint256",
          "name": "_escrowId",
          "type": "uint256"
        }
      ],
      "name": "getStoredEscrowBalance",
      "outputs": [
        {
          "internalType": "uint256",
          "name": "",
          "type": "uint256"
        }
      ],
      "stateMutability": "view",
      "type": "function"
    },
    {
      "inputs": [
        {
          "internalType": "contract IERC20Upgradeable",
          "name": "_usdc",
          "type": "address"
        },
        {
          "internalType": "address",
          "name": "_arbitrator",
          "type": "address"
        }
      ],
      "name": "initialize",
      "outputs": [],
      "stateMutability": "nonpayable",
      "type": "function"
    },
    {
      "inputs": [
        {
          "internalType": "uint256",
          "name": "_escrowId",
          "type": "uint256"
        }
      ],
      "name": "isEligibleForAutoCancel",
      "outputs": [
        {
          "internalType": "bool",
          "name": "",
          "type": "bool"
        }
      ],
      "stateMutability": "view",
      "type": "function"
    },
    {
      "inputs": [
        {
          "internalType": "uint256",
          "name": "_escrowId",
          "type": "uint256"
        }
      ],
      "name": "markFiatPaid",
      "outputs": [],
      "stateMutability": "nonpayable",
      "type": "function"
    },
    {
      "inputs": [],
      "name": "nextEscrowId",
      "outputs": [
        {
          "internalType": "uint256",
          "name": "",
          "type": "uint256"
        }
      ],
      "stateMutability": "view",
      "type": "function"
    },
    {
      "inputs": [
        {
          "internalType": "uint256",
          "name": "_escrowId",
          "type": "uint256"
        },
        {
          "internalType": "bytes32",
          "name": "evidenceHash",
          "type": "bytes32"
        }
      ],
      "name": "openDisputeWithBond",
      "outputs": [],
      "stateMutability": "nonpayable",
      "type": "function"
    },
    {
      "inputs": [],
      "name": "owner",
      "outputs": [
        {
          "internalType": "address",
          "name": "",
          "type": "address"
        }
      ],
      "stateMutability": "view",
      "type": "function"
    },
    {
      "inputs": [],
      "name": "paused",
      "outputs": [
        {
          "internalType": "bool",
          "name": "",
          "type": "bool"
        }
      ],
      "stateMutability": "view",
      "type": "function"
    },
    {
      "inputs": [],
      "name": "proxiableUUID",
      "outputs": [
        {
          "internalType": "bytes32",
          "name": "",
          "type": "bytes32"
        }
      ],
      "stateMutability": "view",
      "type": "function"
    },
    {
      "inputs": [
        {
          "internalType": "uint256",
          "name": "_escrowId",
          "type": "uint256"
        }
      ],
      "name": "releaseEscrow",
      "outputs": [],
      "stateMutability": "nonpayable",
      "type": "function"
    },
    {
      "inputs": [],
      "name": "renounceOwnership",
      "outputs": [],
      "stateMutability": "nonpayable",
      "type": "function"
    },
    {
      "inputs": [
        {
          "internalType": "uint256",
          "name": "_escrowId",
          "type": "uint256"
        },
        {
          "internalType": "bool",
          "name": "decision",
          "type": "bool"
        },
        {
          "internalType": "bytes32",
          "name": "explanationHash",
          "type": "bytes32"
        }
      ],
      "name": "resolveDisputeWithExplanation",
      "outputs": [],
      "stateMutability": "nonpayable",
      "type": "function"
    },
    {
      "inputs": [
        {
          "internalType": "uint256",
          "name": "_escrowId",
          "type": "uint256"
        },
        {
          "internalType": "bytes32",
          "name": "evidenceHash",
          "type": "bytes32"
        }
      ],
      "name": "respondToDisputeWithBond",
      "outputs": [],
      "stateMutability": "nonpayable",
      "type": "function"
    },
    {
      "inputs": [
        {
          "internalType": "address",
          "name": "newOwner",
          "type": "address"
        }
      ],
      "name": "transferOwnership",
      "outputs": [],
      "stateMutability": "nonpayable",
      "type": "function"
    },
    {
      "inputs": [
        {
          "internalType": "uint256",
          "name": "_escrowId",
          "type": "uint256"
        },
        {
          "internalType": "address",
          "name": "newSequentialAddress",
          "type": "address"
        }
      ],
      "name": "updateSequentialAddress",
      "outputs": [],
      "stateMutability": "nonpayable",
      "type": "function"
    },
    {
      "inputs": [
        {
          "internalType": "address",
          "name": "newImplementation",
          "type": "address"
        }
      ],
      "name": "upgradeTo",
      "outputs": [],
      "stateMutability": "nonpayable",
      "type": "function"
    },
    {
      "inputs": [
        {
          "internalType": "address",
          "name": "newImplementation",
          "type": "address"
        },
        {
          "internalType": "bytes",
          "name": "data",
          "type": "bytes"
        }
      ],
      "name": "upgradeToAndCall",
      "outputs": [],
      "stateMutability": "payable",
      "type": "function"
    },
    {
      "inputs": [],
      "name": "usdc",
      "outputs": [
        {
          "internalType": "contract IERC20Upgradeable",
          "name": "",
          "type": "address"
        }
      ],
      "stateMutability": "view",
      "type": "function"
    }
  ],
  "bytecode": "0x60a08060405234610032573060805261773890816200003882396080518181816144fe0152818161462c0152614e190152f35b600080fdfe6080604052600436101561001257600080fd5b60003560e01c8063012f52ee146163a157806306ba047314615c4757806306ce1f3114615b105780630dff3c0514615af35780632e2c7770146150195780633659cfe614614df55780633728ae9314614dd85780633e413bee14614dae57806343ebf45a14614d81578063462b117414614d59578063485cc955146148be5780634f1ef286146145af57806352d1902d146144eb57806357c2fe51146138ce5780635c975abb146138ab57806365387eae14612e6a5780636f7a82b9146129db578063715018a61461297e57806389cb29dd1461295f5780638da5cb5b146129365780639c3df6091461261b578063a3c23f2d146125d7578063a8db2e4814611d90578063b1f8b4a514611d72578063c9c31af5146118d8578063d40dc870146118b9578063da0f52c3146111f7578063dc747d36146111d1578063e018243614610996578063e84941d71461096c578063ed65316414610239578063f05b223b1461021b5763f2fde38b1461018757600080fd5b34610216576020366003190112610216576101a06164e5565b6101a861659d565b6001600160a01b038116156101c2576101c0906165f5565b005b60405162461bcd60e51b815260206004820152602660248201527f4f776e61626c653a206e6577206f776e657220697320746865207a65726f206160448201526564647265737360d01b6064820152608490fd5b600080fd5b346102165760003660031901126102165760206040516203f4808152f35b346102165760208060031936011261021657600435610269604051675832a737d8b5f80784820152838152616511565b610271616a44565b61028c60405167d145736ef86bcdba84820152838152616511565b6102a7604051679124fded8c4de1c184820152838152616511565b6102af616968565b6102ca60405167b6950bf0f331eae184820152838152616511565b6102e560405167264efc775601bd0184820152838152616511565b610300604051675fd0477e5c79e06384820152838152616511565b61031b604051677dc0d46a718e5bee84820152838152616511565b8060005261012e82526040600020916103456040516771c0279ca5050a0083820152828152616511565b6103606040516795fc02b2cfc6525183820152828152616511565b61037b604051677652d4cf92f1d9d883820152828152616511565b600883019283549360ff85169460068610156109565761039e60018097146169ac565b6103b9604051677f7306408ed6357086820152858152616511565b6103d460405167354cea8d676dd4b986820152858152616511565b6103ef60405167038807276e8d701586820152858152616511565b61040a604051670c73d1a0ceeb039086820152858152616511565b60028301546001600160a01b0391908216331480610949575b80610923575b80156108ee575b15610891577f6aabd5958ac38c026e042f1f5e2c969e1bfa0ea0a77e4b5a1713648c10d3428460e06000805160206176a383398151915296946080969460028a9561048c604051671a59ae2fb8a1eafb8b8201528a8152616511565b6104a760405167b0befbdce9e6a3588b8201528a8152616511565b6104c26040516719cdcc54ba8aba068b8201528a8152616511565b60ff8160081c16600014610871576104eb6040516776f5f2cf44d26da88b8201528a8152616511565b6105066040516789fb59f197d0490a8b8201528a8152616511565b61052160405167784167bfc62239c48b8201528a8152616511565b61053c60405167e90aeadc1e74ee278b8201528a8152616511565b61054c838260101c1615156168fd565b61056760405167def5fba92157a0d28b8201528a8152616511565b61058260405167f799b6fb73a977168b8201528a8152616511565b60ff19161782556105a460405167fa840cc4e94c4fe689820152888152616511565b60098601906105b38254616959565b82556105d060405167e9de719ddf818ff98a820152898152616511565b8560005261012f8852600060408120556105fb60405167a5d41ef5196e0d758a820152898152616511565b61061660405167ed76a9a0179f84d98a820152898152616511565b825460081c60ff161561077c5761063e6040516736feef719c3b99768a820152898152616511565b61065960405167d0bed9604615843e8a820152898152616511565b6106746040516748392ef1435487b68a820152898152616511565b61069281806101305416945460101c16936005890194855491616c27565b6106ad604051670f4fc322676d4c4c8a820152898152616511565b6106c860405167de548eef0027fc0b8a820152898152616511565b60038c88015497015416915490549060405192835287830152604082015242606082015260a087820152601160a08201527073657175656e7469616c20657363726f7760781b60c0820152a35b61073060405167c11721c851ecd4c583820152828152616511565b61074b60405167d9c0e1b8013302af83820152828152616511565b604080519160008352820152600f60408201526e115cd8dc9bddc81c995b19585cd959608a1b6060820152a2606555005b915061079960405167b205130fe026a12589820152888152616511565b6107b4604051677cd5827e298ed12589820152888152616511565b6107cf60405167d0452ba79c546eb389820152888152616511565b816101305416918b60038801976107f1838a5416956005830196875491616c27565b61080c6040516701689750c7ff2ebf8c8201528b8152616511565b61082760405167da2b9ec49d94d77d8c8201528b8152616511565b0154965416915490549060405192835287830152604082015242606082015260a087820152600f60a08201526e3234b932b1ba103a3790313abcb2b960891b60c0820152a3610715565b61088c60405167abe7a528c783b0c48b8201528a8152616511565b610567565b60405162461bcd60e51b815260048101869052602f60248201527f453130323a20556e617574686f72697a65642063616c6c6572206f722066696160448201526e1d081b9bdd0818dbdb999a5c9b5959608a1b6064820152608490fd5b50816101315416331480156104305750604051675a6fdb93ed1dc7fb60c11b8682015285815261091d90616511565b86610430565b50604051672ed937fb72f0525160c21b8682015285815261094390616511565b86610429565b5060ff8160b01c16610423565b634e487b7160e01b600052602160045260246000fd5b3461021657600036600319011261021657610131546040516001600160a01b039091168152602090f35b3461021657602080600319360112610216576004356109c6604051676a717adbf3c0890b84820152838152616511565b6109ce616a44565b6109e960405167b4f0988cf91f6ab784820152838152616511565b610a04604051678c7ef27d82447bed84820152838152616511565b610a0c616968565b610a2760405167fb40caa18481578384820152838152616511565b610a4260405167400c44719aa1f07b84820152838152616511565b610a5d60405167a3c757b9b9ec529984820152838152616511565b610a7860405167aeec1b0ccfec4e4984820152838152616511565b8060005261012e8252604060002091610aa2604051670afa06983d98a97b83820152828152616511565b610abd60405167ed4587f5966bb5b383820152828152616511565b610ad8604051679a27eaeab7a41bab83820152828152616511565b6008830192835460ff8116946006861015806109565786159283806111aa575b8015611174575b610b08906169ac565b610b23604051679d0b0ecb78e9ea0388820152878152616511565b610b3e604051675737f235473b62f188820152878152616511565b610b59604051678e7c6165b9c7080388820152878152616511565b610b74604051678454d583b3f5f8e388820152878152616511565b600285019760018060a01b0394858a5416938433148061114d575b8015611117575b610b9f906169f8565b610bba604051675c094198ac00eedc8b8201528a8152616511565b610bd56040516764fc9b3732eba5f98b8201528a8152616511565b610bf060405167d433fdcd4b39b0d88b8201528a8152616511565b61095657156110f457610c146040516715f381a437088f4c89820152888152616511565b610c2f604051674831082c419eb85089820152888152616511565b610c4a60405167ac6b2afaf4129d5a89820152888152616511565b610c65604051670642f9846ac8481289820152888152616511565b600686015442111561109b57600190610c8f60405167ebc58c72a807eb638a820152898152616511565b610caa6040516710d6751bcfc45f4e8a820152898152616511565b610cc5604051676738e090577008578a820152898152616511565b036110615760ff90610ce8604051676cd5f3fcee241cc789820152888152616511565b610d03604051674c6a8cf5fcbfc19d89820152888152616511565b610d1e604051673215078d31baa74789820152888152616511565b610d3960405167fe0a6cc67e07836b89820152888152616511565b60b01c1661100857610d5c60405167a7bf51796f0da51687820152868152616511565b610d776040516734682c3372895ba787820152868152616511565b610d926040516769adbbc416d379b987820152868152616511565b610dad604051678a4e23c5004c9e1c87820152868152616511565b6007840154421115610fb2576000805160206176e3833981519152949392610fa892610e37600593610df060405167b43093dfe57be4a28a820152898152616511565b610e0b6040516745a87add5d07eae08a820152898152616511565b610e26604051672cf73be869b4f5688a820152898152616511565b836101305416908588015491616c27565b610e52604051674b9e26398c3af9ad88820152878152616511565b8760005261012f865260006040812055610e7d6040516766853733dad8106488820152878152616511565b610e986040516750dc2efdcd00a4b188820152878152616511565b876000805160206176a383398151915260405180610ee2816080906000815260406020820152601060408201526f115cd8dc9bddc818d85b98d95b1b195960821b60608201520190565b0390a25b610f0160405167c3e34ec87789e3f188820152878152616511565b600360ff19825416179055610f2760405167209cdedf11129c4687820152868152616511565b610f6f6009850195610f398754616959565b809755610f57604051673753701b4458ce1b83820152828152616511565b6040519067e8d1d82e4f6b2679818301528152616511565b60018401549754169201549160405193849342928590949392606092608083019660018060a01b03168352602083015260408201520152565b0390a36001606555005b60405162461bcd60e51b815260048101869052602860248201527f43616e6e6f742063616e63656c3a206669617420646561646c696e65206e6f7460448201526708195e1c1a5c995960c21b6064820152608490fd5b60405162461bcd60e51b815260048101869052602b60248201527f453130353a204669617420616c726561647920636f6e6669726d65642c20636160448201526a1b9b9bdd0818d85b98d95b60aa1b6064820152608490fd5b505060056000805160206176e3833981519152949392610fa89261109660405167c7d2057940a9f58888820152878152616511565b610ee6565b60405162461bcd60e51b815260048101889052602b60248201527f43616e6e6f742063616e63656c3a206465706f73697420646561646c696e652060448201526a1b9bdd08195e1c1a5c995960aa1b6064820152608490fd5b6001906111126040516795d8ba132060ebd18a820152898152616511565b610c8f565b5086610131541633148015610b9657506040516772125fadd0da112760c11b8a82015289815261114690616511565b6001610b96565b50604051671568aa5ee038201960c31b8a82015289815261116d90616511565b6001610b8f565b5060009150600188148015610aff5750604051671887b98d4b3d9c9d60c11b878201528681526111a390616511565b6001610aff565b50604051679ae025e1473fba9d60c01b878201528681526111ca90616511565b6001610af8565b346102165760203660031901126102165760206111ef600435616f44565b604051908152f35b346102165761120536616587565b906040519161122560209367c48cdddba537344085820152848152616511565b61122d616a44565b6112486040516712265970af05108c85820152848152616511565b61126360405167d8a1b645b518dfdd85820152848152616511565b61126b616968565b6112866040516748783bfc23f87fa285820152848152616511565b6112a160405167b772e498ec4c11e585820152848152616511565b6112bc604051677aac29063d459e2f85820152848152616511565b6112d760405167a3fae01ba0f3de6185820152848152616511565b8160005261012e83526040600020926113016040516763a6c9357b50c17b83820152828152616511565b61131c60405167735446815226277483820152828152616511565b61133760405167db78dc4893f5d75c83820152828152616511565b6008840190815460ff81169060068210156109565761135a600160ff93146169ac565b611375604051673a3318477aebad5085820152848152616511565b61139060405167746ab04c8e565aa285820152848152616511565b6113ab60405167129d14dc184b922285820152848152616511565b6113c6604051677471ca4a08c6d56685820152848152616511565b60b01c1615611867576113ea6040516716271c55b0d63bb283820152828152616511565b61140560405167f030ba8a0a9117c283820152828152616511565b61142060405167deb8759383e1744183820152828152616511565b61143b60405167833be8aeb7c42e9283820152828152616511565b60028501546001600160a01b0392908316331480611840575b8015611809575b611464906169f8565b61147f60405167ed33ee3ecf12b0f984820152838152616511565b61149a604051678be66a524135f53a84820152838152616511565b6114b560405167c4f6c43e0cdd54ae84820152838152616511565b6114d0604051677ab25535509b82bc84820152838152616511565b600a860195838754166117c4576114f86040516794f16ca9b85e4f0d85820152848152616511565b611513604051674ed694f9b5a12af385820152848152616511565b61152e6040516774a5b2aa6ee3bd4d85820152848152616511565b6005810154916005830292808404600514901517156117ae577f63b279d01d638a4e3844510c8f326ce08dd550b151d5fdbc0a624e022e30be89956060956064600195049961158e6040516798697f491c77595c89820152888152616511565b6115a96040516748e55f33ebdc1e0c89820152888152616511565b6115bc8b83610130541630903390616a9a565b6115d7604051670ddd54e3f75833e089820152888152616511565b42600d8601556115f8604051679db5d07d5dd4613489820152888152616511565b80546001600160a01b0319163317905560405167841a03e230faf90a8782015286815261162490616511565b61163f60405167cfd64a1f3d2a18fe88820152878152616511565b600384015416331460001461174d5761166960405167806cd2ddcc1547f487820152868152616511565b611684604051670ac546d4de35540987820152868152616511565b88600b8401556116a560405167d27a452a81cc217a87820152868152616511565b600e8301555b6116c660405167daf6cfa61761da6e86820152858152616511565b600460ff198254161790556116ec604051679f7abbf5a2d9e29085820152848152616511565b600981016116fa8154616959565b90556117176040516794c130bd670977f485820152848152616511565b61173260405167edf0ed6f5fb8fdc985820152848152616511565b01549460405191338352820152426040820152a36001606555005b61176860405167f2f8d6b49f7cbfb687820152868152616511565b61178360405167b2d506b4aa1c0db687820152868152616511565b88600c8401556117a4604051670bceb06e52fab54c87820152868152616511565b600f8301556116ab565b634e487b7160e01b600052601160045260246000fd5b60405162461bcd60e51b815260048101849052601960248201527f4469737075746520616c726561647920696e69746961746564000000000000006044820152606490fd5b50826003870154163314801561145b575060405167bbef68dd69e7bb0760c01b8382015282815261183990616511565b600161145b565b5060405167e1dee0375a72273160c01b8382015282815261186090616511565b6001611454565b6084906040519062461bcd60e51b82526004820152602560248201527f46696174206d75737420626520636f6e6669726d6564206265666f7265206469604482015264737075746560d81b6064820152fd5b346102165760003660031901126102165760206040516305f5e1008152f35b3461021657602080600319360112610216576004359061190960405167ae53c4fe19237a9d83820152828152616511565b611911616a44565b61192c60405167dfeb566426a3dda783820152828152616511565b61194760405167fc99953fddd8643883820152828152616511565b61194f616968565b61196a60405167fd03b541a12e1a2a83820152828152616511565b6119856040516783d525ed7991ce0e83820152828152616511565b6119a0604051670abbe9d70372cfc183820152828152616511565b6119bb60405167853779646bf682fd83820152828152616511565b8160005261012e815260406000206119e460405167bf98169c4c7b0a4b84820152838152616511565b6119ff6040516740490103d0dcd05084820152838152616511565b611a1a6040516777fbc69369f3bdde84820152838152616511565b6008810160ff815416600681101561095657611a3690156169ac565b611a5160405167df38498427310f9c85820152848152616511565b611a6c604051671c49ac49994f85c585820152848152616511565b611a87604051671efb4414ff18b04185820152848152616511565b611aa26040516784be4cbf0b37293385820152848152616511565b60028201546001600160a01b0390611abd90821633146169f8565b611ad860405167cfadac6678b391fe86820152858152616511565b611af360405167feef517aedcfe25586820152858152616511565b611b0e604051678f784b8488c7214f86820152858152616511565b611b2960405167c6a32b3790ce44fe86820152858152616511565b60068301544211611d2d57611b4f60405167fc305386c4bc512d86820152858152616511565b611b6a604051671dcbe36cd86fe48a86820152858152616511565b611b8560405167d654b050c89a31c286820152858152616511565b6101305416611b9e600584019182549030903390616a9a565b611bb9604051672f13c633b3cfa26086820152858152616511565b54908460005261012f845281604060002055611be66040516760d20b195a240b9f86820152858152616511565b600160ff19825416179055611c0c60405167ff94e56bbb29125885820152848152616511565b61070842018042116117ae576000805160206176a3833981519152938360409260076080960155611c4d835167dc5f03c4808341fc84820152838152616511565b867f704a954b0e2e8ee22559b7ff6660cd433c562a629f9b6336cdee0f28819c7e42606060016009850194611c828654616959565b809655611c9f885167d1792fc92094c95489820152888152616511565b611cb9885167af82199f105150b589820152888152616511565b015493865190888252868201524287820152a3611ce6825167c859b71603525fd283820152828152616511565b611d00825167187bdd23843ffa3883820152828152616511565b8151928352820152600d60408201526c115cd8dc9bddc8199d5b991959609a1b6060820152a26001606555005b60405162461bcd60e51b815260048101859052601e60248201527f453130333a204465706f73697420646561646c696e65206578706972656400006044820152606490fd5b3461021657600036600319011261021657602060405162093a808152f35b3461021657611d9e36616587565b60405190611dbd6020926739533aff405da05d84820152838152616511565b611dc5616a44565b611de060405167b84745577d42a10684820152838152616511565b611dfb60405167b5c79c8a767bc51d84820152838152616511565b611e03616968565b611e1e60405167781c0645aa524b4a84820152838152616511565b611e3960405167e86094524daaa6bb84820152838152616511565b611e54604051671c40b6b3ad3b8d6384820152838152616511565b611e6f604051677129d9cfa73cae4784820152838152616511565b8260005261012e8252604060002091611e9960405167d3bc7555e507028683820152828152616511565b611eb460405167dab2c7ff4e7671da83820152828152616511565b611ecf6040516705629da61b99496183820152828152616511565b60ff6008840154166006811015610956576004611eec91146169ac565b611f0760405167f4fb50bc787bee3b83820152828152616511565b611f2260405167c87d079f0a3edee183820152828152616511565b611f3d604051672533828276f7c90c83820152828152616511565b600a8301546003840180546001600160a01b0394929085169085168181036123a4575050611f7c6040516728f26723f190902c85820152848152616511565b611f976040516724d0d4f9cfb89d0685820152848152616511565b611fb2604051670e150f994cfd8e5985820152848152616511565b611fcd60405167447c058bde47a61985820152848152616511565b611fde8460028701541633146169f8565b611ff960405167cf2b5e033a320f2485820152848152616511565b61201460405167eade5fc4c8ed238585820152848152616511565b61202f60405167546e8d2b46c765aa85820152848152616511565b61204a60405167904a3892fb9315e785820152848152616511565b600f8501546123535761206e60405167ab9cecf657aa77fb85820152848152616511565b61208960405167a73d216974deb4fa85820152848152616511565b6120a460405167c336d0a0e257d78185820152848152616511565b6120bf604051671dbbcaac9aa1c66185820152848152616511565b600d8501546203f48081018091116117ae574211612300576120f260405167bc6e13142bc6cc4d85820152848152616511565b61210d60405167993cee5a2a668a7985820152848152616511565b612128604051675a2b0a22af9ede3585820152848152616511565b60058501546005810290808204600514901517156117ae577f7c63ff3787c2ec512c29151b8c94d4c832ab30660df4127b99d2c684caab68db9560609560648593049361218660405167342bdfa7af77915489820152888152616511565b6121a160405167a465f32fd0d5d0dd89820152888152616511565b6121b48583610130541630903390616a9a565b6121cf60405167c3b4eec408f225be89820152888152616511565b6121ea60405167345b12102b17451d89820152888152616511565b5416331460001461229f57600e9061221360405167f98cf2d68fa44be588820152878152616511565b61222e60405167a4c4e36f46f7a12888820152878152616511565b83600b82015561224f604051672340d06e5f63f8ae88820152878152616511565b01555b61226d60405167b7bcf48ca1bb716385820152848152616511565b61228860405167e405589be4befb7485820152848152616511565b604051923384528301526040820152a26001606555005b600f906122bd604051678270f5d50606c4a788820152878152616511565b6122d860405167c1cf1a9c8f0bf26588820152878152616511565b83600c8201556122f9604051678aa9595353a5116788820152878152616511565b0155612252565b60405162461bcd60e51b815260048101849052602560248201527f453131313a204469737075746520726573706f6e736520706572696f642065786044820152641c1a5c995960da1b6064820152608490fd5b60405162461bcd60e51b815260048101849052602360248201527f4469737075746520616c726561647920726573706f6e6465642062792073656c6044820152623632b960e91b6064820152608490fd5b6123bf604051676d4f2daa76c13ecf87820152868152616511565b6123da60405167b0b0c221ee09360c87820152868152616511565b60028701548616036125425761245d9061240560405167b96f601f80c54a1a87820152868152616511565b612420604051675796929d018f7f2887820152868152616511565b61243b60405167d050f7fbcc57ba8a87820152868152616511565b612456604051675075457c2f27bee887820152868152616511565b33146169f8565b6124786040516719da447d6e27836c85820152848152616511565b61249360405167e4ee059363bf6e9f85820152848152616511565b6124ae60405167fc32c3619c267ef985820152848152616511565b6124c960405167620cca76f47e90f185820152848152616511565b600e8501546124f2576124ed604051676415de1ab461645485820152848152616511565b61206e565b60405162461bcd60e51b815260048101849052602260248201527f4469737075746520616c726561647920726573706f6e6465642062792062757960448201526132b960f11b6064820152608490fd5b60648461256060405167de5414ea91fd496c83820152828152616511565b61257b604051671b0a1685dfb2af3083820152828152616511565b612596604051677e3967cdd67559c283820152828152616511565b6040519062461bcd60e51b82526004820152601f60248201527f453130323a20496e76616c6964206469737075746520696e69746961746f72006044820152fd5b346102165760203660031901126102165760806125f5600435616cbb565b6040805194151585526001600160a01b0390931660208501529183015215156060820152f35b34610216576020806003193601126102165760043561264b604051678fa81c1e752966ae84820152838152616511565b612653616968565b61266e60405167667a036ec44d7e5884820152838152616511565b61268960405167814121293749e0e884820152838152616511565b6126a46040516774b3a635777076ad84820152838152616511565b6126bf60405167e010a412b0f2f43184820152838152616511565b8060005261012e825260406000206126e8604051670a5022633656ad0f85820152848152616511565b6127036040516725728011954a598f85820152848152616511565b61271e604051679cd03319ac6b432785820152848152616511565b60088101805460ff8116600681101561095657600161273d91146169ac565b61275860405167693c6b0e69ed10a387820152868152616511565b612773604051672f37fdbf71d944f987820152868152616511565b61278e60405167a7c98908c0692e9787820152868152616511565b6127a96040516705778b70a63b62ae87820152868152616511565b6127c060018060a01b0360038501541633146169f8565b6127db604051679885432b4e93f93787820152868152616511565b6127f6604051679659cd9285e3ad3a87820152868152616511565b612811604051676ccae1b66536b0f887820152868152616511565b61282c60405167a073979c507b09df87820152868152616511565b600783015442116128e557916001917f4c44299950f727bd3c64a8178218675f855ede424f39d96ccb70d780afc533b89361287860405167e8398e251ad90bf189820152888152616511565b6128936040516728b80438151012d289820152888152616511565b60ff60b01b191660b084901b179055604051677f659520e9660c72868201528581526128be90616511565b6128d960405167bde99e1bdc4a859987820152868152616511565b015492604051428152a3005b60405162461bcd60e51b815260048101869052602360248201527f453130343a2046696174207061796d656e7420646561646c696e6520657870696044820152621c995960ea1b6064820152608490fd5b34610216576000366003190112610216576033546040516001600160a01b039091168152602090f35b3461021657600036600319011261021657602061012d54604051908152f35b346102165760003660031901126102165761299761659d565b603380546001600160a01b031981169091556000906001600160a01b03167f8be0079c531659141344cd1fd0a4f28419497f9722a3daafe3b4186f6b6457e08280a3005b34610216576040366003190112610216576004356129f76164fb565b9060405191612a1760209367ee92f72e46b6f6d485820152848152616511565b612a1f616968565b612a3a6040516726427575c549903585820152848152616511565b612a55604051670dc5c48110ab4e5c85820152848152616511565b612a7060405167bc48486c19bd18ed85820152848152616511565b612a8b604051675f13eae132a837f785820152848152616511565b8160005261012e83526040600020612ab4604051675e365c9baad3523386820152858152616511565b612acf604051673369d63c7b8d92e286820152858152616511565b612aea60405167355f78e6910ab8ce86820152858152616511565b6008810180549060ff8260081c1615612e2557612b186040516725ff5cc9465c42a888820152878152616511565b612b3360405167b8583f212f960c2088820152878152616511565b612b4e60405167d49588d3540bfac288820152878152616511565b612b6960405167317dd94472afdf9588820152878152616511565b60ff8216600681101590816109565760028114159182612e16575b82612e02575b5050600393612b9b612c1f92616bdb565b612bb660405167b03fbffdc2388e6d8a820152898152616511565b612bd160405167f70c9216f6e67f038a820152898152616511565b612bec6040516793ae31e77870a00c8a820152898152616511565b612c0760405167219af6f931aa9e528a820152898152616511565b909301546001600160a01b03939033908516146169f8565b612c3a60405167fee52f6d7b94ac1588820152878152616511565b612c55604051672cf5b9981c55769f88820152878152616511565b612c7060405167d4f13e686dad10b888820152878152616511565b612c8b60405167270fb5690128988488820152878152616511565b82841615612dbf5790612d887f6bb0ff98b418d3c6a5262a7fd3de150c3df2e511f666c49a475a646db5cba06d9596612d5586612dba95612cdd60405167536fbe8777bf613586820152858152616511565b612cf86040516793ee23a377df5a2286820152858152616511565b612d13604051677bee63df099c40b286820152858152616511565b612d2e6040516745fe52a5857a916b86820152858152616511565b805462010000600160b01b03191660109290921b62010000600160b01b0316919091179055565b612d7060405167fadb80f8542d2b5383820152828152616511565b60405190679e8ba2e3643ae460818301528152616511565b604080516001600160a01b0360109390931c909416821684529316602083015242928201929092529081906060820190565b0390a2005b6064866040519062461bcd60e51b825280600483015260248201527f453130323a20496e76616c69642073657175656e7469616c20616464726573736044820152fd5b909150610956576005141583612b9b612b8a565b50600381141591506000612b84565b60405162461bcd60e51b815260048101879052601e60248201527f453130363a20457363726f77206973206e6f742073657175656e7469616c00006044820152606490fd5b346102165760a036600319011261021657612e836164fb565b606435151560643503610216576084356001600160a01b0381169081900361021657612ec260405167e4b229c76300d67f602082015260208152616511565b612eca616968565b612ee7604051678aeeec5d52573191602082015260208152616511565b612f046040516778c2599a548dcb25602082015260208152616511565b612f216040516727db07e389cbfb46602082015260208152616511565b612f3e604051673beaaf1ef8260251602082015260208152616511565b612f5b60405167051943af1907455f602082015260208152616511565b6044351561386f57612f80604051671a624178fd0c3d97602082015260208152616511565b612f9d604051671c641ea943d185b4602082015260208152616511565b612fba60405167911347e5a6ba7942602082015260208152616511565b612fd760405167a03ff9612bf0853b602082015260208152616511565b6305f5e1006044351161381f5761300160405167065de00e88c83550602082015260208152616511565b61301e604051674c34fbf54b27841d602082015260208152616511565b61303b6040516723d7b5ff983832fb602082015260208152616511565b6130586040516735d9dad87b131e81602082015260208152616511565b6001600160a01b038216156137da57613084604051676761e95286b1368a602082015260208152616511565b6130a16040516731f9e834dd643d60602082015260208152616511565b6130be60405167bde1cf97e53f95b9602082015260208152616511565b606435156137b757613145906130e760405167e51a285406732457602082015260208152616511565b613104604051672c92b70a05bada47602082015260208152616511565b613121604051672feaf434c2600f40602082015260208152616511565b61313e60405167255e1e13a7849ac5602082015260208152616511565b15156168fd565b613162604051678629a9b847611620602082015260208152616511565b61317f60405167c60f97816cdee389602082015260208152616511565b61319c604051676c158e7a61085100602082015260208152616511565b604051610280810181811067ffffffffffffffff8211176137a1576040526000815260006020820152600060408201526000606082015260006080820152600060a0820152600060c0820152600060e08201526000610100820152600061012082015260006101408201526000610160820152600061018082015260006101a082015260006101c082015260006101e0820152600061020082015260006102208201526000610240820152600061026082015261326c60405167e9aff4bf7c49e03d602082015260208152616511565b61012d54808252613290604051670d28e97ce4591b0d602082015260208152616511565b60043560208301526132b560405167c63cef22fd897591602082015260208152616511565b3360408301526132d8604051670fa5a379b00300bc602082015260208152616511565b60018060a01b03831660608301526133036040516737513fc7ac51862d602082015260208152616511565b60018060a01b0361013154166080830152613331604051673001cf1b5bbbea03602082015260208152616511565b60443560a08301526133566040516704e4e99917e9394a602082015260208152616511565b610384420142116117ae57610384420160c083015261338860405167966411bac116a972602082015260208152616511565b600060e08301526133ac60405167a2d7084c29dacfd7602082015260208152616511565b60006101008301526133d160405167e14a1cf2780e4b94602082015260208152616511565b60643515156101208301526133f96040516731294cad6ec70279602082015260208152616511565b6064358015613779575b80613751575b1561374a576084355b60018060a01b031661014083015261343d60405167c247adf35794f943602082015260208152616511565b6000610160830152613462604051676225c5e1857247c4602082015260208152616511565b6000610180830152613487604051673b7056196c452453602082015260208152616511565b60005261012e60205260406000209181518355602082015160018401556002830160018060a01b036040840151166001600160601b0360a01b8254161790556003830160018060a01b036060840151166001600160601b0360a01b8254161790556004830160018060a01b036080840151166001600160601b0360a01b82541617905560a0820151600584015560c0820151600684015560e08201516007840155610100820151906006821015610956576008848101805461012086015161014087015162010000600160b01b0360109190911b1661ff0091151590941b1660ff959095166001600160b01b0319909116179390931717825560209361370792610160850151815460ff60b01b191690151560b01b60ff60b01b1617905561018084015160098201556101a0840151600a820180546001600160a01b0319166001600160a01b03929092169190911790556101c0840151600b8201556101e0840151600c820155610200840151600d820155610220840151600e820155610240840151600f82015561026084015160109091015560405167d07882783b76bdb28582015284815261363790616511565b61365260405167bfac2b4fb8eacf1886820152858152616511565b61012d549060018060a01b03610131541660c085015160e08601519060018060a01b0361014088015116926040519433865260018060a01b03168986015260408501526044356060850152608084015260a0830152606435151560c083015260e082015242610100820152817f1c02d3803891c959ee1696ed7587d527fdbe26005bf351701f23b93488d441fd61012060043593a361370260405167b2c9ce25ea56d9c386820152858152616511565b616959565b61012d5561372660405167707420a58191381e84820152838152616511565b613741604051671b1f19ecd2bc7b6c84820152838152616511565b51604051908152f35b6000613412565b5061377260405167e7bbbb4ab86abcb960c01b602082015260208152616511565b6001613409565b5061379a604051673e5095ba772bb27f60c11b602082015260208152616511565b6000613403565b634e487b7160e01b600052604160045260246000fd5b506137d5604051679c3f30ddc0ae2788602082015260208152616511565b613162565b60405162461bcd60e51b815260206004820152601b60248201527f453130323a20496e76616c6964206275796572206164647265737300000000006044820152606490fd5b60405162461bcd60e51b815260206004820152602260248201527f453130313a20416d6f756e742065786365656473206d6178696d756d206c696d6044820152611a5d60f21b6064820152608490fd5b60405162461bcd60e51b8152602060048201526014602482015273114c4c0c0e88125b9d985b1a5908185b5bdd5b9d60621b6044820152606490fd5b3461021657600036600319011261021657602060ff609754166040519015158152f35b346102165760208060031936011261021657600435906138ff6040516706a0a809090a654383820152828152616511565b613907616a44565b6139226040516742a90b42f87a05e483820152828152616511565b61393d604051676d03a355ced9d41b83820152828152616511565b613945616968565b613960604051672cb34e88de2c6f2b83820152828152616511565b61397b60405167d30a554929cff91383820152828152616511565b61399660405167a481f86824fd2e6c83820152828152616511565b6139b1604051678dd5c007a465b27f83820152828152616511565b6139cc604051674579d577f6cbfb4383820152828152616511565b61013180546001600160a01b03906139e790821633146169f8565b613a0260405167a268fb079022043185820152848152616511565b613a1d604051670af8aa75b62fca1b85820152848152616511565b613a3860405167ceac62d22ebaf0e585820152848152616511565b8360005261012e8352604060002090613a62604051677059384c9d2d4c3f86820152858152616511565b613a7d604051674c290e15bf592d1c86820152858152616511565b613a98604051676dee2ae030e1654486820152858152616511565b600882019160ff8354166006811015610956576004613ab791146169ac565b613ad2604051673e1b6daa0476de5787820152868152616511565b613aed604051679308bff178fc84a587820152868152616511565b613b08604051679f0fd7a5c23f936f87820152868152616511565b613b2360405167bb09fc09eb727ae687820152868152616511565b600d8101546203f48081018091116117ae5742106144a6579085939291613b5b60405167ade696899c175e8088820152878152616511565b613b76604051678b048ea6c88f5f3f88820152878152616511565b613b9160405167742154d97e103f2a88820152878152616511565b613bac604051675fe097fa041e42a788820152878152616511565b613bc7604051670169c0ad6a1791f288820152878152616511565b613be260405167f1b9c2ea29d4005888820152878152616511565b613bfd60405167f722ea04bdc884fb88820152878152616511565b81600a820154169060038101918383541681148061449a575b156140e5575092827f4cd6838d4e78d26429c83df21624d2541bae7b67454aa056b2f17d1d8ae6cabb936000805160206176a3833981519152989693600960a09997613c7360405167c10114bcfcda64fc8c8201528b8152616511565b613c8e604051679b6e74a82363f8968c8201528b8152616511565b8383541695613cae604051671824990dda30a53c8d8201528c8152616511565b8a604051613cbb81616511565b6015815274109d5e595c881dda5b9cc8189e48191959985d5b1d605a1b8282015298613cf860405167e202b66f4446617f84820152838152616511565b613d1360405167f5bff8a4e53f80da84820152838152616511565b825460081c60ff161561407a57613d3b60405167dac11a0a606b291884820152838152616511565b613d5660405167f11ef55e185cac8984820152838152616511565b613d716040516767db59a297c4b20984820152838152616511565b613d8c87610130541688855460101c16600587015491616c27565b613da7604051674f5df087db39307384820152838152616511565b613dc26040516702fdcc76f1ce535f84820152838152616511565b600b840154801561405957613e3290613dec6040516743c443433b4d67b486820152858152616511565b613e0760405167282d0f2b14c2058c86820152858152616511565b613e2260405167c3b8f24232c3c78c86820152858152616511565b8861013054168989541690616c27565b613e4d6040516756b76a5da384ed8184820152838152616511565b613e6860405167a7dbe6f088feb90d84820152838152616511565b600c84015490811561403657613ec9613ed993613e96604051676e0682c82913158183820152828152616511565b613eb160405167db4acc62e2bc7b8a83820152828152616511565b6040519067bed8943e5d9d17f7818301528152616511565b8780610130541691541690616c27565b613ef4604051674e19d68aa5d13dce8d8201528c8152616511565b8960005261012f8b5260006040812055613f1f60405167a8cf3c3776b0cfc78d8201528c8152616511565b600560ff19825416179055613f45604051678edd9a688dedafa78c8201528b8152616511565b01613f508154616959565b9055613f6d60405167760678b471f44c688a820152898152616511565b613f886040516736f965a0916d64bc8a820152898152616511565b5416911614613faf604051928392835260008784015260606040840152606083019061685d565b0390a2613fcd60405167c5e303e55f05d80783820152828152616511565b613fe8604051676ecd26dd0dfffe0e83820152828152616511565b604080519160008352820152602460408201527f44697370757465207265736f6c7665642062792064656661756c74206a7564676060820152631b595b9d60e21b6080820152a26001606555005b50505061405460405167f5602affc420a1c48d8201528c8152616511565b613ed9565b50614075604051679de5138d629f9cc084820152838152616511565b613e32565b61409560405167a1a7ef9ca161e28f84820152838152616511565b6140b060405167f447bab328df4d2e84820152838152616511565b6140cb6040516797ede2ff8183c88184820152838152616511565b6140e08761013054168a600587015491616c27565b613d8c565b95509091926141056040516767032ceb21a7f72589820152888152616511565b614120604051674cf1bbbc16711fef89820152888152616511565b6002820195848754168091148061448e575b156143d35793807f4cd6838d4e78d26429c83df21624d2541bae7b67454aa056b2f17d1d8ae6cabb94600960a099958b99958d996141916000805160206176a38339815191529e678db944805e06ec05604051918201528d8152616511565b6141ad8c67848eab69ab646dfa604051918201528d8152616511565b8b81986141cb604051675ffa0719cdb7dd3b84820152838152616511565b6040516141d781616511565b601681527514d95b1b195c881dda5b9cc8189e48191959985d5b1d60521b838201529a614215604051674327b012d842beb585820152848152616511565b6142306040516748d66e4a0e9546cd85820152848152616511565b614247610130948a86541690600589015491616c27565b61426260405167d0ce49580a1d420a85820152848152616511565b61427d604051671498dc6ac2fbdd1985820152848152616511565b600c86015480156143b1576142eb916142a760405167458d9112a122207687820152868152616511565b6142c260405167ca5cd093fc787f4f87820152868152616511565b6142dd60405167d3c5c8f1250451b087820152868152616511565b8a8087541691541690616c27565b6143066040516722256595ad111a0584820152838152616511565b61432160405167bae322124450755f84820152838152616511565b600b85015491889083156143915761405494614386839261435360405167f64b79a4e63356e183820152828152616511565b61436e60405167d300240862322b1083820152828152616511565b6040519067372c201003c2b0f1818301528152616511565b541691541690616c27565b5050505050614054604051679780744961489a668d8201528c8152616511565b50506143ce60405167695816dc3a411ae884820152838152616511565b6142eb565b6084886143f1604051674128d88d0fbeec4a83820152828152616511565b61440c6040516701543ce652c7048783820152828152616511565b61442760405167809b25ba99c3ffce83820152828152616511565b6040519062461bcd60e51b82526004820152603960248201527f43616e6e6f74206170706c792064656661756c74206a7564676d656e7420776860448201527f656e20626f7468207061727469657320726573706f6e646564000000000000006064820152fd5b50600e83015415614132565b50600f82015415613c16565b60405162461bcd60e51b815260048101869052601b60248201527f526573706f6e736520706572696f64206e6f74206578706972656400000000006044820152606490fd5b34610216576000366003190112610216577f00000000000000000000000000000000000000000000000000000000000000006001600160a01b031630036145445760206040516000805160206176c38339815191528152f35b60405162461bcd60e51b815260206004820152603860248201527f555550535570677261646561626c653a206d757374206e6f742062652063616c60448201527f6c6564207468726f7567682064656c656761746563616c6c00000000000000006064820152608490fd5b6040366003190112610216576145c36164e5565b6024359067ffffffffffffffff821161021657366023830112156102165781600401356145ef8161656b565b926145fd6040519485616549565b818452602091828501913660248383010111610216578160009260248693018537860101526001600160a01b037f000000000000000000000000000000000000000000000000000000000000000081169061465a3083141561663e565b6146776000805160206176c383398151915292828454161461669f565b61469260405167db96e5a5b243118a86820152858152616511565b61469a61659d565b6146b5604051677b6167d713699e1a86820152858152616511565b6146d0604051678e062b444e7f84d686820152858152616511565b7f4910fdfa16fed3260ed0e7147f7cc6da11a60208b5b9406d12a635614ffd91435460ff161561470857505050506101c09150616700565b84939416906040516352d1902d60e01b81528581600481865afa6000918161488f575b5061478c5760405162461bcd60e51b815260048101879052602e60248201527f45524331393637557067726164653a206e657720696d706c656d656e7461746960448201526d6f6e206973206e6f74205555505360901b6064820152608490fd5b036148385761479a83616700565b7fbc7cd75a20ee27fd9adebab32041f755214dbc6bffa90cc0225b39da2e5c2d3b600080a2835115801590614830575b6147d057005b600080916101c0957f416464726573733a206c6f772d6c6576656c2064656c65676174652063616c6c604051966148068861652d565b60278852870152660819985a5b195960ca1b60408701525190845af461482a616790565b916167c0565b5060016147ca565b60405162461bcd60e51b815260048101859052602960248201527f45524331393637557067726164653a20756e737570706f727465642070726f786044820152681a58589b195555525160ba1b6064820152608490fd5b9091508681813d83116148b7575b6148a78183616549565b810103126102165751908861472b565b503d61489d565b34610216576040366003190112610216576001600160a01b0360043581811690819003610216576148ed6164fb565b6040519161490c602093675bbf328c48f44bfb85820152848152616511565b6000549360ff8560081c161592838094614d4c575b8015614d35575b15614cd95760ff198681166001176000559584614cc7575b5061495c604051675b58ec1d2a9b284087820152868152616511565b614977604051679f8b404c2e62d75a87820152868152616511565b6149926040516722d818ab4d83769187820152868152616511565b6149ad604051675868efe6a221be3287820152868152616511565b6149c760ff60005460081c166149c28161689d565b61689d565b6149d0336165f5565b6149eb60405167d4a4698b8261882287820152868152616511565b614a0660405167deac3480485c00b187820152868152616511565b614ab16000549660ff8860081c1690614a1e8261689d565b614a278261689d565b6001606555614a476040516773614e316e3883ce8a820152898152616511565b614a6260405167f861cffd28bce0498a820152898152616511565b614a6b8261689d565b614a748261689d565b60975416609755614a96604051679054a50520849eb389820152888152616511565b6149c260405167e1ea0852427f5f8e89820152888152616511565b614acc604051672c0d93afc44422e487820152868152616511565b614ae760405167d718b46b360f3c6a87820152868152616511565b614b0260405167cfbf8cf28564564687820152868152616511565b8215614c8b57614b2360405167157b36905bc31eb287820152868152616511565b614b3e60405167cffef39a7594831f87820152868152616511565b614b5960405167f42079044650000287820152868152616511565b614b74604051671ad30e2cb7c4111487820152868152616511565b168015614c4857614b966040516777058a6f6f1ea92386820152858152616511565b614bb1604051679577a15b7d82aaae86820152858152616511565b6001600160601b0360a01b916101309083825416179055614be360405167b6f39b32a06334af86820152858152616511565b61013191825416179055614c08604051676872b4aab0eb0ba484820152838152616511565b600161012d55614c1457005b7f7f26b83ff96e1f2b6a682f133852f6798a09c465da95921460cefb38474024989161ff00191660005560405160018152a1005b6064846040519062461bcd60e51b825280600483015260248201527f453130323a20496e76616c69642061726269747261746f7220616464726573736044820152fd5b60405162461bcd60e51b8152600481018690526014602482015273496e76616c69642055534443206164647265737360601b6044820152606490fd5b61ffff19166101011760005586614940565b60405162461bcd60e51b815260048101869052602e60248201527f496e697469616c697a61626c653a20636f6e747261637420697320616c72656160448201526d191e481a5b9a5d1a585b1a5e995960921b6064820152608490fd5b50303b1580156149285750600160ff871614614928565b50600160ff871610614921565b34610216576020366003190112610216576020614d7760043561722f565b6040519015158152f35b346102165760203660031901126102165760043560005261012f6020526020604060002054604051908152f35b3461021657600036600319011261021657610130546040516001600160a01b039091168152602090f35b346102165760003660031901126102165760206040516103848152f35b346102165760208060031936011261021657614e0f6164e5565b6001600160a01b037f000000000000000000000000000000000000000000000000000000000000000081169290614e483085141561663e565b614e656000805160206176c383398151915294828654161461669f565b614e8060405167db96e5a5b243118a84820152838152616511565b614e8861659d565b614ea3604051677b6167d713699e1a84820152838152616511565b614ebe604051678e062b444e7f84d684820152838152616511565b604051938285019185831067ffffffffffffffff8411176137a157826040526000865260ff7f4910fdfa16fed3260ed0e7147f7cc6da11a60208b5b9406d12a635614ffd91435416600014614f1b57505050506101c09150616700565b84939416906040516352d1902d60e01b81528581600481865afa60009181614fea575b50614f9f5760405162461bcd60e51b815260048101879052602e60248201527f45524331393637557067726164653a206e657720696d706c656d656e7461746960448201526d6f6e206973206e6f74205555505360901b6064820152608490fd5b0361483857614fad83616700565b7fbc7cd75a20ee27fd9adebab32041f755214dbc6bffa90cc0225b39da2e5c2d3b600080a2835115801590614fe2576147d057005b5060006147ca565b9091508681813d8311615012575b6150028183616549565b8101031261021657519088614f3e565b503d614ff8565b346102165760603660031901126102165760043560243580151580820361021657604435906040519261505d602094672a55304cc8b2647786820152858152616511565b615065616a44565b615080604051677fc12ff724f0a83e86820152858152616511565b61509b60405167adf349ec9f88c0fa86820152858152616511565b6150a3616968565b6150be60405167fc216803e6c6d28786820152858152616511565b6150d9604051671252634902ddfc6a86820152858152616511565b6150f46040516752e6243aa33a6cdd86820152858152616511565b61510f60405167b93134cc2e9ac34786820152858152616511565b61512a604051671c55213a2c56f31f86820152858152616511565b61013180546001600160a01b039061514590821633146169f8565b615160604051672c56a2edf3998e8d88820152878152616511565b61517b604051670bdcf3f79037daea88820152878152616511565b61519660405167d060e0e2aaf2bbb788820152878152616511565b8660005261012e86526040600020916151c06040516742eb62bf00f6627a89820152888152616511565b6151db60405167fe1f6a3a79c842e789820152888152616511565b6151f660405167751f34f768dd197d89820152888152616511565b600883019360ff855416600681101561095657600461521591146169ac565b61523060405167bf888fc1dfdff1b78a820152898152616511565b61524b60405167ac09f2efe55c7a8e8a820152898152616511565b615266604051677780c3a0338081e48a820152898152616511565b615281604051675313cbd14d3ab5ba8a820152898152616511565b600d8401546203f4808101908181116117ae57620d2f00018091116117ae574211615aa257889460097f4cd6838d4e78d26429c83df21624d2541bae7b67454aa056b2f17d1d8ae6cabb95608099958b99956156fc956153026000805160206176a38339815191529e6739114db33a58bfb9604051918201528d8152616511565b61531e8c677a9546e1bd45e8e7604051918201528d8152616511565b8860108501556153408c67f9703519daf2d88f604051918201528d8152616511565b61535c8c6705537cd034e72459604051918201528d8152616511565b6153788c67d5e7a0d70a47d028604051918201528d8152616511565b6153948c6714b73703d819d904604051918201528d8152616511565b1561582b576153b4604051675aa969770cf18eae8d8201528c8152616511565b6153cf6040516748ea5848569a53888d8201528c8152616511565b6153ea6040516728c89f8a5a8aaba98d8201528c8152616511565b845460081c60ff16156157ba5761541260405167643a524cfd2594158d8201528c8152616511565b61542d60405167f2814d6400a95c528d8201528c8152616511565b615448604051676f6e55593ae8c4d68d8201528c8152616511565b61546382610130541683875460101c16600586015491616c27565b61547e6040516775c1262d21896c9e8d8201528c8152616511565b615499604051670e7b3ec2e9bba5ed8d8201528c8152616511565b600b83015480156157995761550f906154c48d6040519067bec44e16a4bb8ecd818301528152616511565b6154e08d60405190672a3ea5942960fdc2818301528152616511565b6154fc8d6040519067a42d6b7aabf0f23e818301528152616511565b8361013054168460038701541690616c27565b61552a60405167b96b28f525ecd37b8d8201528c8152616511565b61554560405167236db745cbf3777f8d8201528c8152616511565b600c830154908115615776576155b8926155718d60405190679d35570e419f3315818301528152616511565b61558d8d6040519067ce984c6ca2122045818301528152616511565b6155a98d604051906713f6a0fd5103123d818301528152616511565b80610130541691541690616c27565b6155d360405167892b7e5ec738d9ba8b8201528a8152616511565b6040516155df8161652d565b603a81527f42757965722077696e733a20627579657220626f6e642072657475726e65642c8a8201527f2073656c6c657220626f6e6420746f2061726269747261746f720000000000006040820152925b61564b604051672f34b88e248097ce8c8201528b8152616511565b8860005261012f8a526000604081205561567660405167ffbb71afd971382b8c8201528b8152616511565b600560ff1982541617905561569c60405167f7f89cda9917fffc8b8201528a8152616511565b016156a78154616959565b90556156c460405167626b22b5669facf089820152888152616511565b6156df6040516738cd5cd3d96eb14189820152888152616511565b60405193849384528784015260606040840152606083019061685d565b0390a261571a604051678c938fd9f394298283820152828152616511565b61573560405167dfd96c7bf11bb0fe83820152828152616511565b604080519160008352820152601f60408201527f44697370757465207265736f6c766564206279206172626974726174696f6e006060820152a26001606555005b50505061579460405167eee5c6f023e667728b8201528a8152616511565b6155b8565b506157b560405167834d61776fb987b38d8201528c8152616511565b61550f565b6157d560405167184f95df2340d4098d8201528c8152616511565b6157f0604051670ae247488616f8988d8201528c8152616511565b61580b60405167146867dbc7e4ba008d8201528c8152616511565b61582682610130541683600386015416600586015491616c27565b615463565b9061584760405167a2989603e99aef868d8201528c8152616511565b61586260405167814bdacfcedc2f0a8d8201528c8152616511565b61587d604051677c9298e4cf1665ea8d8201528c8152616511565b610130918b8284541661589d600287019185835416600589015491616c27565b6158b8604051670ec6f908fa23d8e784820152838152616511565b6158d3604051674af38c96d1ca0de984820152838152616511565b600c860154908115615a7f576159346159429361590160405167abad1c65a42ad2ed83820152828152616511565b61591c604051676fc55ba03ac90a1083820152828152616511565b60405190673de2f70aaf034af7818301528152616511565b848087541691541690616c27565b61595e8c67fd79d40d58c1fd15604051918201528d8152616511565b61597a8c67cc4644891f6272c1604051918201528d8152616511565b600b840154918c8315615a5a576159de9461438683926159ab60405167baa7a2dfdd3c5d0f83820152828152616511565b6159c6604051673e09466fe0c0ad3683820152828152616511565b604051906733fba47055f00fd6818301528152616511565b6159f9604051677f3fcf49fab3f4058b8201528a8152616511565b604051615a058161652d565b603b81527f53656c6c65722077696e733a2073656c6c657220626f6e642072657475726e658a8201527f642c20627579657220626f6e6420746f2061726269747261746f720000000000604082015292615630565b5050505050615a7a60405167a01afdd95bcb54958b8201528a8152616511565b6159de565b5050615a9d906751d228c0587c116e604051918201528d8152616511565b615942565b60405162461bcd60e51b815260048101899052602360248201527f453131333a204172626974726174696f6e20646561646c696e6520657863656560448201526219195960ea1b6064820152608490fd5b346102165760003660031901126102165760206040516107088152f35b346102165760208060031936011261021657600435615b406040516778a9c2577fface8984820152838152616511565b615b5b60405167dfcc62e6ac033da084820152838152616511565b615b76604051679f4b65712fb3ff6384820152838152616511565b8060005261012e8252615be0816040600020615ba360405167688b4ec0f92a882087820152868152616511565b615bbe60405167f6d45beb51a2da3b87820152868152616511565b615bd960405167e10e2da4fab0fdaf87820152868152616511565b5414616c77565b615bfb60405167e7fe053b3c6e550784820152838152616511565b615c16604051674c67dcb37ea13be384820152838152616511565b615c3160405167871c166819792d6784820152838152616511565b60005261012f8152604060002054604051908152f35b346102165760208060031936011261021657600435615c77604051675053dadfeb9c988084820152838152616511565b615c7f616a44565b615c9a60405167402999f85030411184820152838152616511565b615cb5604051670e449c5dd581266c84820152838152616511565b615cbd616968565b615cd860405167269c823ee45e1fd984820152838152616511565b615cf360405167a371c8998e06101f84820152838152616511565b615d0e60405167e201559a820ac17184820152838152616511565b615d2960405167790aea71aac9ce9f84820152838152616511565b615d4460405167ac680d202241c07e84820152838152616511565b610131546001600160a01b039290615d5f90841633146169f8565b615d7a6040516709aae61ffc4e8fcd83820152828152616511565b615d9560405167c408639db9bd1b8383820152828152616511565b615db060405167f31b1d31599a2b2283820152828152616511565b8160005261012e81526040600020615dd9604051670f0ecbda563f218d84820152838152616511565b615df46040516702a3f94c26b6744484820152838152616511565b615e0f60405167b3f2af4afc58b3a584820152838152616511565b60088101805460ff811660068110158061095657600282141580616392575b819080616382575b615e409150616bdb565b615e5b60405167f7e828636c8f062488820152878152616511565b615e7660405167d583032242ecd7b088820152878152616511565b615e9160405167f85f687b955dcb6688820152878152616511565b610956578061635f57615eb560405167fb7668df34b0988187820152868152616511565b615ed060405167a2d70ec10ebb86e687820152868152616511565b615eeb604051673ded949c2f8fa14b87820152868152616511565b615f0660405167d377d0c37a66681387820152868152616511565b600684015442111561631a57600190615f2f60405166a26017fbf099a488820152878152616511565b615f4a604051677fa588b8719942ed88820152878152616511565b615f65604051676edfa5394790408e88820152878152616511565b036162e75760ff90615f88604051678b2279e0520d6cc887820152868152616511565b615fa3604051678ba89c249aa17b6387820152868152616511565b615fbe60405167e18b6bf12c1f6e3987820152868152616511565b615fd960405167f0a47004966b2f2f87820152868152616511565b60b01c1661629457615ffc60405167e2b05bb1b0df7e9c85820152848152616511565b61601760405167b605ecc3cad32c4085820152848152616511565b6160326040516782ce7bc2a53be7d285820152848152616511565b61604d60405167a3a35b7d737c0fd685820152848152616511565b600782015442111561624f57906000805160206176e383398151915292916160866040516785619449c01d411c85820152848152616511565b6160a1604051675184dbe30a49d87285820152848152616511565b6160bc604051679a25fd33e82b7b9c85820152848152616511565b6160d786610130541687600285015416600585015491616c27565b6160f260405167cb45f94badbfda9f85820152848152616511565b8460005261012f83526000604081205561611d604051678cb6a8ba616151a585820152848152616511565b61613860405167e2c54b3b1cf69df485820152848152616511565b846000805160206176a383398151915260405180616182816080906000815260406020820152601060408201526f115cd8dc9bddc818d85b98d95b1b195960821b60608201520190565b0390a25b6161a160405167f6f7d88bc2f3b22a85820152848152616511565b600360ff198254161790556161c76040516791f3214f84124ceb84820152838152616511565b61620f60098201926161d98454616959565b8094556161f760405167a119e2972f06bea383820152828152616511565b6040519067b32c458dc1ccfabf818301528152616511565b6001810154600282015460059092015460408051979093166001600160a01b03168752602087015290850191909152426060850152928060808101610fa8565b60405162461bcd60e51b815260048101849052601960248201527f4669617420646561646c696e65206e6f742065787069726564000000000000006044820152606490fd5b60405162461bcd60e51b815260048101849052602560248201527f4669617420616c726561647920706169643b2063616e6e6f74206175746f2d63604482015264185b98d95b60da1b6064820152608490fd5b50906000805160206176e383398151915292916163156040516750122f4221768aca85820152848152616511565b616186565b60405162461bcd60e51b815260048101869052601c60248201527f4465706f73697420646561646c696e65206e6f742065787069726564000000006044820152606490fd5b60019061637d60405167f177b83650546aee88820152878152616511565b615f2f565b5061095657806005831415615e36565b50600090506003821415615e2e565b346102165760203660031901126102165760043560005261012e6020526040600020805490808080808080808080808080600181015460018060a01b03600283015416906010600f600e600d600c600b600960086007600660058d600360018060a01b03910154169d600460018060a01b03910154169e01549e01549e01549e01549e01549e600a60018060a01b03910154169f01549f01549f01549f01549f01549f01549f608052602060800152604060800152606060800152608080015260a06080015260c06080015260e06080015260ff8116906006821015610956576101809190915260ff600882901c811615156101a0526001600160a01b03601083901c166101c05260b09190911c1615156101e052610200526102205261024052610260526102809081526102a0919091526102c0919091526102e0919091526080f35b600435906001600160a01b038216820361021657565b602435906001600160a01b038216820361021657565b6040810190811067ffffffffffffffff8211176137a157604052565b6060810190811067ffffffffffffffff8211176137a157604052565b90601f8019910116810190811067ffffffffffffffff8211176137a157604052565b67ffffffffffffffff81116137a157601f01601f191660200190565b6040906003190112610216576004359060243590565b6033546001600160a01b031633036165b157565b606460405162461bcd60e51b815260206004820152602060248201527f4f776e61626c653a2063616c6c6572206973206e6f7420746865206f776e65726044820152fd5b603380546001600160a01b039283166001600160a01b0319821681179092559091167f8be0079c531659141344cd1fd0a4f28419497f9722a3daafe3b4186f6b6457e0600080a3565b1561664557565b60405162461bcd60e51b815260206004820152602c60248201527f46756e6374696f6e206d7573742062652063616c6c6564207468726f7567682060448201526b19195b1959d85d1958d85b1b60a21b6064820152608490fd5b156166a657565b60405162461bcd60e51b815260206004820152602c60248201527f46756e6374696f6e206d7573742062652063616c6c6564207468726f7567682060448201526b6163746976652070726f787960a01b6064820152608490fd5b803b15616735576000805160206176c383398151915280546001600160a01b0319166001600160a01b03909216919091179055565b60405162461bcd60e51b815260206004820152602d60248201527f455243313936373a206e657720696d706c656d656e746174696f6e206973206e60448201526c1bdd08184818dbdb9d1c9858dd609a1b6064820152608490fd5b3d156167bb573d906167a18261656b565b916167af6040519384616549565b82523d6000602084013e565b606090565b9192901561682257508151156167d4575090565b3b156167dd5790565b60405162461bcd60e51b815260206004820152601d60248201527f416464726573733a2063616c6c20746f206e6f6e2d636f6e74726163740000006044820152606490fd5b8251909150156168355750805190602001fd5b60405162461bcd60e51b81526020600482015290819061685990602483019061685d565b0390fd5b919082519283825260005b848110616889575050826000602080949584010152601f8019910116010190565b602081830181015184830182015201616868565b156168a457565b60405162461bcd60e51b815260206004820152602b60248201527f496e697469616c697a61626c653a20636f6e7472616374206973206e6f74206960448201526a6e697469616c697a696e6760a81b6064820152608490fd5b1561690457565b60405162461bcd60e51b815260206004820152602760248201527f453130363a204d697373696e672073657175656e7469616c20657363726f77206044820152666164647265737360c81b6064820152608490fd5b60001981146117ae5760010190565b60ff6097541661697457565b60405162461bcd60e51b815260206004820152601060248201526f14185d5cd8589b194e881c185d5cd95960821b6044820152606490fd5b156169b357565b60405162461bcd60e51b815260206004820152601e60248201527f453130353a20496e76616c6964207374617465207472616e736974696f6e00006044820152606490fd5b156169ff57565b60405162461bcd60e51b815260206004820152601960248201527f453130323a20556e617574686f72697a65642063616c6c6572000000000000006044820152606490fd5b600260655414616a55576002606555565b60405162461bcd60e51b815260206004820152601f60248201527f5265656e7472616e637947756172643a207265656e7472616e742063616c6c006044820152606490fd5b6040516323b872dd60e01b60208201526001600160a01b039283166024820152929091166044830152606480830193909352918152616ae391616ade608483616549565b616ae5565b565b60018060a01b031690616b3e604051616afd81616511565b6020938482527f5361666545524332303a206c6f772d6c6576656c2063616c6c206661696c6564858301526000808587829751910182855af161482a616790565b805191821591848315616bb0575b505050905015616b595750565b6084906040519062461bcd60e51b82526004820152602a60248201527f5361666545524332303a204552433230206f7065726174696f6e20646964206e6044820152691bdd081cdd58d8d9595960b21b6064820152fd5b919381809450010312616bd757820151908115158203616bd4575080388084616b4c565b80fd5b5080fd5b15616be257565b60405162461bcd60e51b815260206004820152601e60248201527f453130373a20457363726f7720696e207465726d696e616c20737461746500006044820152606490fd5b60405163a9059cbb60e01b60208201526001600160a01b039092166024830152604480830193909352918152608081019167ffffffffffffffff8311828410176137a157616ae392604052616ae5565b15616c7e57565b60405162461bcd60e51b8152602060048201526015602482015274115cd8dc9bddc8191bd95cc81b9bdd08195e1a5cdd605a1b6044820152606490fd5b604090815192616cdc602094676b9543ba6b4f679d86820152858152616511565b616cf68351670f3fdb7df46fde7886820152858152616511565b616d10835167fe12394f66d212fd86820152858152616511565b600860009280845261012e8652616d7a85852091616d3e8751671a16324edb01de7e8a820152898152616511565b616d58875167b87bac10bb2bb1368a820152898152616511565b616d728751676b5b78a3493b15ac8a820152898152616511565b825414616c77565b616d948551678c468915e483bfbd88820152878152616511565b616dae855167b6879a6352cca6f488820152878152616511565b616dc8855167b88ec08296abc89588820152878152616511565b015460ff8160081c1680616f2e575b15616ed557616df68451675481895df9de927b87820152868152616511565b616e10845167a35fb70d102af6d387820152868152616511565b616e2a84516728c7c14c959f0b6487820152868152616511565b602460018060a01b039580878460101c169761013054168751938480926370a0823160e01b82528b60048301525afa958615616ecc57508495616e97575b505060ff16916006831015616e835750600260019493921490565b634e487b7160e01b81526021600452602490fd5b9080929550813d8311616ec5575b616eaf8183616549565b81010312616ec157519260ff38616e68565b8280fd5b503d616ea5565b513d86823e3d90fd5b50919283616ef7616f2793955167766011ae850e390084820152838152616511565b616f11815167ed633839916aa08884820152838152616511565b519067eb91c9fefb22c385818301528152616511565b8180918190565b50601081901c6001600160a01b03161515616dd7565b6040908151616f64602091679f97872d276d06b683820152828152616511565b616f7e835167fa081c81b80ec1b483820152828152616511565b616f98835167bf6cd87e935499d483820152828152616511565b600082815261012e8252616fff84822093616fc3865167f9dfcc4dc046af1c86820152858152616511565b616fdd8651678f76fa1d0b611ef186820152858152616511565b616ff7865167e94c8b18e4abf92986820152858152616511565b845414616c77565b6170198451677b133be3dc34910b84820152838152616511565b617033845167301d9ed725800b9a84820152838152616511565b61704d84516724731fcc2d5b773c84820152838152616511565b60ff60088401541660068110158061721b5760018214806171f5575b80156171c2575b156170ce575050506170c990836170996005955167c2307b168f253dc084820152838152616511565b6170b381516777e17311ef615b6384820152838152616511565b51906771bffaa2b4109d7a818301528152616511565b015490565b90919493506170ed84516718fd6ba455ec4f6285820152848152616511565b6171078451678207364797f3e55f85820152848152616511565b6171ae57617160578161712d61715d935167afd6b7598b425c5884820152838152616511565b6171478151678642b2d6d1867f2f84820152838152616511565b5190679b9552b0f36b8af4818301528152616511565b90565b8161717e61715d9351673d154199ef25c9a184820152838152616511565b61719881516759308e696101a49784820152838152616511565b519067f2b13d671e787a04818301528152616511565b634e487b7160e01b84526021600452602484fd5b5050816004821480156170705750855167a3055db43b737e0560c01b858201528481526171ee90616511565b6001617070565b508551671500d2701904156560c31b8582015284815261721490616511565b6001617069565b634e487b7160e01b83526021600452602483fd5b604090815161724f602091679ade9dbe3d571c5e83820152828152616511565b6172698351672e5c031019256cae83820152828152616511565b6172838351675cd5bd3f6981603283820152828152616511565b600091825261012e81528282206172aa8451670acdd8128744341384820152838152616511565b6172c4845167a24c1a6a83966bad84820152838152616511565b805461731a5750826172ea61715d9394516797ef661ce25063a784820152838152616511565b617304815167f10de9866065049b84820152838152616511565b5190678c9afac16930f8b8818301528152616511565b617334845167c303fa0c34243fb284820152838152616511565b61734e845167d0f471edbaf0d1df84820152838152616511565b6173688451679298128cf481cf1784820152838152616511565b600881015460ff811660068110158061760957600282148061767c575b801561761d575b8181156175cd575b50156173ed5750505050826173bd61715d93945167fe539543789bd60184820152838152616511565b6173d78151674c1ef50afcebb30184820152838152616511565b5190675a9d47adaa0a8784818301528152616511565b61740b8796939496516746bab8fdc4bd9ee487820152868152616511565b61742587516702c30cd96056ca5f87820152868152616511565b61743f875167a057ba045eaf525c87820152868152616511565b6175b957806174a25750505061749b908361746b6006955166a1baa3ab2057e784820152838152616511565b617485815167f7e2a5cb32b23e2984820152838152616511565b5190677cae29632473fd2a818301528152616511565b0154421190565b6001906174c2879496975167fdcf1ce64fa704df87820152868152616511565b6174dc84516707d4f2f1a6fe672187820152868152616511565b6174f684516720a89e231481eb8e87820152868152616511565b03617568575060ff92918161751e61754e935167e162eef9f4c45de884820152838152616511565b617538815167fbfbea7554eecd6284820152838152616511565b5190673e6d53628ccaba39818301528152616511565b60b01c1615908161755d575090565b600791500154421190565b935061715d92506175898151672f94135a118c874784820152838152616511565b6175a381516763cbf9ab1185b42f84820152838152616511565b519067d47a23548e7bb33b818301528152616511565b634e487b7160e01b82526021600452602482fd5b90506176095760058214806175e3575b81617394565b50865167028e3a6a741bc7c960c01b8682015285815261760290616511565b60016175dd565b634e487b7160e01b86526021600452602486fd5b5050846003821480617656575b801561738c57508651672c8de9363ab965c960c01b8682015285815261764f90616511565b600161738c565b50865167cc0d1284866a304960c01b8682015285815261767590616511565b600161762a565b5086516704f4d1b10f44255b60c51b8682015285815261769b90616511565b600161738556fefc642d8ff4982e4968e4174bae7e68ad93fa2ad89224afd00e95ca8e8394385e360894a13ba1a3210667c828492db98dca3e2076cc3735a920a3ca505d382bbcfb14835202040f52d2f5515b2ab036c02aa8eaf2f18aab2c3772a04a8643489ba26469706673582212200044d517407c460c6b39402ffacad4f30c9a31dbb84e3acb90b7608e1842180564736f6c63430008110033",
  "linkReferences": {},
  "deployedLinkReferences": {}
}